:100000000C94A7000C94C4000C94C4000C94C4007D
:100010000C94C4000C94C4000C94C4000C94C40050
:100020000C94C4000C94C4000C94C4000C94890378
:100030000C94C4000C94C4000C94C4000C94C40030
:100040000C94C4000C94C4000C94C4000C94BE0224
:100050000C94C40000407A10F35A00A0724E1809A4
:100060000010A5D4E80000E87648170000E40B541F
:10007000020000CA9A3B000000E1F50500008096EE
:100080009800000040420F000000A0860100000020
:10009000102700000000E8030000000064000000DA
:1000A00000000A00000000000100000000002C76A3
:1000B000D888DC674F0823DFC1DFAE59E1B1B796BE
:1000C000E5E3E453C63AE651997696E8E6C284261B
:1000D000EB898C9B62ED407C6FFCEFBC9C9F40F2F7
:1000E000BAA56FA5F490055A2AF75C936B6CF96773
:1000F0006DC11BFCE0E40D47FEF520E6B500D0ED38
:10010000902E0300943577050080841E080000209F
:100110004E0A000000C80C333333330F986E12833D
:100120001141EF8D2114893BE65516CFFEE6DB1811
:10013000D1844B381BF77C1D901DA4BBE4242032D6
:1001400084725E228100C9F124ECA1E53D271124CF
:100150001FBECFE5D4E0DEBFCDBF10E0A0E6B0E02B
:10016000E0ECFCE002C005900D92A238B107D9F78F
:1001700020E0A2E8B0E001C01D92A83CB207E1F780
:100180000E9435030C945E060C94000085B38064D5
:1001900085BB00C085B38F7B85BB0895CF93DF936C
:1001A000D82F662321F085B3806185BB03C085B35A
:1001B0008F7E85BB85B38F7D85BB84B38F6084BB09
:1001C000C5B3C07F8D2F82958F708C2B85BB0E940D
:1001D000C600DF70DC2BD5BB0E94C600CF60C5BB5C
:1001E000DF91CF910895882321F085B3806185BB8D
:1001F00003C085B38F7E85BB85B3806285BB84B326
:10020000807F84BB85B3806485BB00C093B3929527
:10021000907F85B38F7B85BB00C085B3806485BB31
:1002200000C083B38F7025B32F7B25BB892B089526
:1002300080E00E94F3008823DCF382E090E00197E5
:10024000F1F780E00E94F3000895CF93C82F0E9439
:10025000180160E08C2F0E94CE00CF9108956111AB
:1002600004C080580E9425010895613021F4805413
:100270000E9425010895623021F48C560E942501C8
:1002800008958C520E942501089581E00E94250165
:100290000895CF93C82F0E941801CA30A1F4843169
:1002A00048F090EC980F943138F084518C3230F44F
:1002B00084E505C080E403C084E101C080E080588B
:1002C0000E94250104C061E08C2F0E94CE00CF91D6
:1002D0000895CF93DF93FC0103C00E944901FE0102
:1002E000EF01219680818111F8CFDF91CF910895A0
:1002F0001F93CF93DF93182F84B38F6784BB80E85D
:100300009EE30197F1F785B3826085BB85B3816079
:1003100085BB0E94C60080E893E10197F1F70E9437
:10032000C600C0E4D0E0CE010197F1F70E94C600FC
:10033000CE010197F1F785B38E7F85BB0E94C60081
:100340002197F1F788E20E94250188E00E942501AB
:100350000E94450186E00E942501812F0E9425010F
:10036000DF91CF911F91089581B3846081BB82B3E7
:10037000846082BB0895CF92DF92EF92FF921F9329
:10038000CF93DF9300D000D01F92CDB7DEB76C01C2
:10039000DE01119685E0FD0111928A95E9F782B39D
:1003A0008B7F82BB87E293E20197F1F700C00000E8
:1003B00082B3846082BB81B38B7F81BB20E00DC0A0
:1003C00000C000C02E5F2D3340F081B3846081BB3C
:1003D00082B3846082BB80E07CC090B3392F3470DC
:1003E00092FDEECF20E00CC000C000C02E5F25368D
:1003F00038F091B3946091BB92B3946092BB69C0A2
:1004000090B3892F847092FFEFCF20E00DC000C021
:1004100000C02E5F253640F081B3846081BB82B37B
:10042000846082BB832F55C090B3892F847092FD66
:10043000EECFB0E024C0829BFECFE7E1EA95F1F772
:100440000000829B0CC047E050E0491B510921E0AD
:1004500030E002C0220F331F4A95E2F7A22B8299A7
:10046000FECF9F5F02C0A0E090E0983020F3E1E073
:10047000F0E0EC0FFD1FEB0FF11DA083BF5FB53067
:1004800090F391B3946091BB92B3946092BB198145
:100490009A813B812C81910F930F920F2D819213A2
:1004A00018C07B01632F70E080E090E00E94980309
:1004B000F6016083718382839383612F70E080E013
:1004C00090E00E949803F701608371838283938395
:1004D00081E00F900F900F900F900F90DF91CF91D0
:1004E0001F91FF90EF90DF90CF900895809186004C
:1004F000813071F5809160008F5F80936000809102
:1005000060008C3339F410926000809161008F5F3D
:1005100080936100809161008C3339F41092610006
:10052000809162008F5F80936200809162008831C9
:1005300039F4109262008091B9008F5F8093B90006
:100540008091B900883111F41092B90010928600A0
:10055000089588B3826088BB88B3886088BB08959B
:1005600088B38D7F88BB88B3877F88BB089589E374
:100570008093820088B38F7D88BB08951F920F926D
:100580000FB60F9211242F933F934F935F936F9366
:100590007F938F939F93AF93BF93EF93FF9380913C
:1005A00087008F5F80938700883028F081E08093F8
:1005B000860010928700809185008130C9F4809177
:1005C000830090918400019690938400809383002F
:1005D0008091830090918400889750F00E94B70228
:1005E0000E94B00210928500109284001092830045
:1005F000FF91EF91BF91AF919F918F917F916F91FB
:100600005F914F913F912F910F900FBE0F901F90D0
:10061000189588B3806888BB089580E28BB988E913
:100620008AB98EE880BD10BC8CE089B90895F89431
:1006300078940E94B4018CE00E9478010E944501E8
:100640008CE090E00E940D0382E082BB9FEF97BB9D
:1006500012BE93E098BF89BF8DE083BF89EF8CBF46
:100660000E9409030E94A90208950E941703109294
:10067000B9000E947602809163008F5F80936300CF
:100680008436B8F31092630061EA70E08AEB90E080
:100690000E94BB01882369F360E080E00E942F0183
:1006A00084E690E00E9469016091A1007091A2002F
:1006B0008091A3009091A4000EEB10E022E030E0C6
:1006C00042E050E00E94D503C8010E9469018CE617
:1006D00090E00E94690161E080E00E942F018FE6B6
:1006E00090E00E9469016091BA007091BB00809116
:1006F000BC009091BD0022E030E042E050E00E945A
:10070000D503C8010E9469018CE690E00E9469014E
:10071000B0CF1F920F920FB60F9211248F938CB10E
:10072000809382008F910F900FBE0F901F901895AD
:10073000E89409C097FB3EF490958095709561957B
:100740007F4F8F4F9F4F9923A9F0F92F96E9BB2731
:100750009395F695879577956795B795F111F8CFAD
:10076000FAF4BB0F11F460FF1BC06F5F7F4F8F4F18
:100770009F4F16C0882311F096E911C0772321F00E
:100780009EE8872F762F05C0662371F096E8862FA6
:1007900070E060E02AF09A95660F771F881FDAF7FD
:1007A000880F9695879597F90895EF920F931F9369
:1007B000CF93DF93E80147FD02C034E001C034E18C
:1007C000042E000C550B57FF03C05195419551095C
:1007D000E32E022F242FAE010E94F503CE01DF91FC
:1007E000CF911F910F91EF900895A9E0B0E0EBEF4A
:1007F000F3E00C942D066A01122FB02E2BE3201784
:1008000020F0FF24F394F00E02C02CE3F22E0F2D03
:1008100027E0AE014F5F5F4F0E944F05BC01498149
:10082000842F8970813031F0E1FC06C0E0FE06C003
:1008300090E205C09DE203C09BE201C090E05E2D06
:10084000507143FF3CC0911102C083E001C084E0BD
:10085000811718F4212F281B01C020E051110BC073
:10086000F601822F30E2882319F031938150FBCFBB
:10087000C20ED11C20E0992329F0D6019C93F601E9
:1008800031966F01C6010396E2FE0AC03EE4D6012E
:100890003C9341E411964C93119712963C9306C0F9
:1008A0003EE6F601308341E641833283FC01322F7C
:1008B00040E2332309F442C041933150FACF42FF62
:1008C00044C0911102C083E001C084E0811718F494
:1008D000212F281B01C020E051110BC0F601822FEF
:1008E00030E2882319F031938150FBCFC20ED11C26
:1008F00020E0992329F0D6019C93F60131966F01EF
:10090000C6010396E2FE0BC039E4D6013C933EE4F7
:1009100011963C93119736E412963C9307C039E642
:10092000F60130833EE6318336E63283FC01322F16
:1009300040E2332319F041933150FBCFFC01E20F29
:10094000F11D10828EEF9FEFA6C021E030E09111E3
:1009500002C020E030E0161617061CF4FB013196A9
:1009600002C0E1E0F0E02E0F3F1FBB2021F0EB2D95
:10097000F0E0319602C0E0E0F0E02E0F3F1FE12FE3
:10098000F0E02E173F071CF4121B212F01C020E0BE
:100990008E2D887159F4F601822F30E2882319F0E8
:1009A00031938150FBCFC20ED11C20E0992329F056
:1009B000D6019C93F60131966F0151110BC0F601DF
:1009C000822F90E3882319F091938150FBCFC20EC0
:1009D000D11C20E00F2D060F9A81342F307144FF77
:1009E00003C0913309F40150101624F4093018F0B3
:1009F00008E001C001E0AB0177FF02C040E050E039
:100A0000FB01E41BF50BA1E0B0E0AC0FBD1FEA0F4A
:100A1000FB1F8EE2A82E4B01801A91080B2D10E0CF
:100A20001195019511094F3FBFEF5B0721F4D601E6
:100A3000AC9211966D01641775072CF0841695061B
:100A400014F4818101C080E3415051093196D601EF
:100A500011967D014017510724F0D6018C93670150
:100A6000E2CF6417750739F4963320F4953319F4FF
:100A7000311101C081E3F6018083F701822F90E2FA
:100A8000882319F091938150FBCFF701E20FF11DFC
:100A9000108280E090E02996ECE00C944906283022
:100AA00008F027E03327DA01990F311D87FD9160A7
:100AB00000966105710539F432602E5F3D9330E395
:100AC0002A95E1F708959F3F30F080387105610560
:100AD00009F03C5F3C5F3D93913008F08068911DC8
:100AE000DF93CF931F930F93FF92EF92192F987F6D
:100AF0009695E92F96959695E90FFF27E255FF4FBA
:100B000099273327EE24FF24A701E70105900894D5
:100B1000079428F4360FE71EF81E491F511D660F73
:100B2000771F881F991F0694A1F70590079428F452
:100B3000E70EF81E491F561FC11D770F881F991F0A
:100B4000661F0694A1F70590079428F4F80E491F34
:100B5000561FC71FD11D880F991F661F771F069448
:100B6000A1F70590079420F4490F561FC71FD81FFF
:100B7000990F661F771F881F0694A9F78491109517
:100B8000177041F0D695C79557954795F794E79418
:100B90001A95C1F7E4E5F0E0689415901591359148
:100BA0006591959105907FE27395E118F10A430BE9
:100BB000560BC90BD009C0F7E10CF11E431F561F9D
:100BC000C91FD01D7EF4703311F48A95E6CFE894E6
:100BD000015030F0080F0AF40027021708F4202F04
:100BE0002395022F7A3328F079E37D932A95E9F74C
:100BF00010C07D932A9589F6069497956795379549
:100C000017951794E118F10A430B560BC90BD0093D
:100C100098F023957E9173957A3308F070E37C9376
:100C20002013B8F77E9170617D9330F0839571E366
:100C30007D9370E32A95E1F71124EF90FF900F91D7
:100C40001F91CF91DF91992787FD909508952F925D
:100C50003F924F925F926F927F928F929F92AF924C
:100C6000BF92CF92DF92EF92FF920F931F93CF9399
:100C7000DF93CDB7DEB7CA1BDB0B0FB6F894DEBF30
:100C80000FBECDBF09942A88398848885F846E8456
:100C90007D848C849B84AA84B984C884DF80EE80A0
:100CA000FD800C811B81AA81B981CE0FD11D0FB6A9
:100CB000F894DEBF0FBECDBFED010895F894FFCFCD
:100CC0001E3B17C848756D65642E20002025005412
:100CD000656D702E20003032003034003035003425
:020CE0003800DA
:00000001FF
